{"abi":[{"type":"function","name":"addGroupMilestone","inputs":[{"name":"_groupId","type":"uint256","internalType":"uint256"},{"name":"_targetAmount","type":"uint256","internalType":"uint256"},{"name":"_description","type":"string","internalType":"string"}],"outputs":[],"stateMutability":"nonpayable"},{"type":"function","name":"calculateProgressPercentage","inputs":[{"name":"_groupId","type":"uint256","internalType":"uint256"}],"outputs":[{"name":"","type":"uint256","internalType":"uint256"}],"stateMutability":"view"},{"type":"function","name":"checkMilestoneStatus","inputs":[{"name":"_groupId","type":"uint256","internalType":"uint256"},{"name":"_milestoneId","type":"uint256","internalType":"uint256"}],"outputs":[],"stateMutability":"nonpayable"},{"type":"function","name":"createGroup","inputs":[{"name":"_name","type":"string","internalType":"string"},{"name":"_description","type":"string","internalType":"string"},{"name":"_isPrivate","type":"bool","internalType":"bool"},{"name":"_targetAmount","type":"uint256","internalType":"uint256"},{"name":"_memberLimit","type":"uint256","internalType":"uint256"},{"name":"_endDate","type":"uint256","internalType":"uint256"}],"outputs":[{"name":"","type":"uint256","internalType":"uint256"}],"stateMutability":"nonpayable"},{"type":"function","name":"deactivateGroup","inputs":[{"name":"_groupId","type":"uint256","internalType":"uint256"}],"outputs":[],"stateMutability":"nonpayable"},{"type":"function","name":"getGroup","inputs":[{"name":"_groupId","type":"uint256","internalType":"uint256"}],"outputs":[{"name":"","type":"tuple","internalType":"struct ITsaroSafeData.Group","components":[{"name":"id","type":"uint256","internalType":"uint256"},{"name":"name","type":"string","internalType":"string"},{"name":"description","type":"string","internalType":"string"},{"name":"isPrivate","type":"bool","internalType":"bool"},{"name":"creator","type":"address","internalType":"address"},{"name":"targetAmount","type":"uint256","internalType":"uint256"},{"name":"currentAmount","type":"uint256","internalType":"uint256"},{"name":"memberLimit","type":"uint256","internalType":"uint256"},{"name":"createdAt","type":"uint256","internalType":"uint256"},{"name":"endDate","type":"uint256","internalType":"uint256"},{"name":"isActive","type":"bool","internalType":"bool"},{"name":"isCompleted","type":"bool","internalType":"bool"}]}],"stateMutability":"view"},{"type":"function","name":"getGroupContributionSummary","inputs":[{"name":"_groupId","type":"uint256","internalType":"uint256"}],"outputs":[{"name":"totalContributions","type":"uint256","internalType":"uint256"},{"name":"totalAmount","type":"uint256","internalType":"uint256"},{"name":"memberCount","type":"uint256","internalType":"uint256"},{"name":"lastContributionTime","type":"uint256","internalType":"uint256"},{"name":"averageContribution","type":"uint256","internalType":"uint256"}],"stateMutability":"view"},{"type":"function","name":"getGroupContributions","inputs":[{"name":"_groupId","type":"uint256","internalType":"uint256"},{"name":"_offset","type":"uint256","internalType":"uint256"},{"name":"_limit","type":"uint256","internalType":"uint256"}],"outputs":[{"name":"","type":"tuple[]","internalType":"struct ITsaroSafeData.ContributionHistory[]","components":[{"name":"contributionId","type":"uint256","internalType":"uint256"},{"name":"member","type":"address","internalType":"address"},{"name":"groupId","type":"uint256","internalType":"uint256"},{"name":"amount","type":"uint256","internalType":"uint256"},{"name":"timestamp","type":"uint256","internalType":"uint256"},{"name":"description","type":"string","internalType":"string"},{"name":"isVerified","type":"bool","internalType":"bool"}]}],"stateMutability":"view"},{"type":"function","name":"getGroupGoal","inputs":[{"name":"_groupId","type":"uint256","internalType":"uint256"}],"outputs":[{"name":"","type":"tuple","internalType":"struct ITsaroSafeData.GroupGoal","components":[{"name":"groupId","type":"uint256","internalType":"uint256"},{"name":"targetAmount","type":"uint256","internalType":"uint256"},{"name":"currentAmount","type":"uint256","internalType":"uint256"},{"name":"deadline","type":"uint256","internalType":"uint256"},{"name":"isCompleted","type":"bool","internalType":"bool"},{"name":"createdAt","type":"uint256","internalType":"uint256"},{"name":"completedAt","type":"uint256","internalType":"uint256"},{"name":"progressPercentage","type":"uint256","internalType":"uint256"}]}],"stateMutability":"view"},{"type":"function","name":"getGroupMembers","inputs":[{"name":"_groupId","type":"uint256","internalType":"uint256"}],"outputs":[{"name":"","type":"address[]","internalType":"address[]"}],"stateMutability":"view"},{"type":"function","name":"getGroupMilestones","inputs":[{"name":"_groupId","type":"uint256","internalType":"uint256"}],"outputs":[{"name":"","type":"tuple[]","internalType":"struct ITsaroSafeData.GoalMilestone[]","components":[{"name":"milestoneId","type":"uint256","internalType":"uint256"},{"name":"groupId","type":"uint256","internalType":"uint256"},{"name":"targetAmount","type":"uint256","internalType":"uint256"},{"name":"description","type":"string","internalType":"string"},{"name":"isReached","type":"bool","internalType":"bool"},{"name":"reachedAt","type":"uint256","internalType":"uint256"},{"name":"createdAt","type":"uint256","internalType":"uint256"}]}],"stateMutability":"view"},{"type":"function","name":"getGroupProgress","inputs":[{"name":"_groupId","type":"uint256","internalType":"uint256"}],"outputs":[{"name":"","type":"tuple","internalType":"struct ITsaroSafeData.GoalProgress","components":[{"name":"groupId","type":"uint256","internalType":"uint256"},{"name":"currentAmount","type":"uint256","internalType":"uint256"},{"name":"targetAmount","type":"uint256","internalType":"uint256"},{"name":"progressPercentage","type":"uint256","internalType":"uint256"},{"name":"daysRemaining","type":"uint256","internalType":"uint256"},{"name":"averageDailyContribution","type":"uint256","internalType":"uint256"},{"name":"isOnTrack","type":"bool","internalType":"bool"}]}],"stateMutability":"view"},{"type":"function","name":"getGroupStats","inputs":[{"name":"_groupId","type":"uint256","internalType":"uint256"}],"outputs":[{"name":"memberCount","type":"uint256","internalType":"uint256"},{"name":"currentAmount","type":"uint256","internalType":"uint256"},{"name":"targetAmount","type":"uint256","internalType":"uint256"},{"name":"progressPercentage","type":"uint256","internalType":"uint256"},{"name":"isActive","type":"bool","internalType":"bool"},{"name":"isCompleted","type":"bool","internalType":"bool"}],"stateMutability":"view"},{"type":"function","name":"getMemberContributionSummary","inputs":[{"name":"_groupId","type":"uint256","internalType":"uint256"},{"name":"_member","type":"address","internalType":"address"}],"outputs":[{"name":"totalContributions","type":"uint256","internalType":"uint256"},{"name":"totalAmount","type":"uint256","internalType":"uint256"},{"name":"lastContributionTime","type":"uint256","internalType":"uint256"},{"name":"averageContribution","type":"uint256","internalType":"uint256"}],"stateMutability":"view"},{"type":"function","name":"getMemberContributions","inputs":[{"name":"_groupId","type":"uint256","internalType":"uint256"},{"name":"_member","type":"address","internalType":"address"},{"name":"_offset","type":"uint256","internalType":"uint256"},{"name":"_limit","type":"uint256","internalType":"uint256"}],"outputs":[{"name":"","type":"tuple[]","internalType":"struct ITsaroSafeData.ContributionHistory[]","components":[{"name":"contributionId","type":"uint256","internalType":"uint256"},{"name":"member","type":"address","internalType":"address"},{"name":"groupId","type":"uint256","internalType":"uint256"},{"name":"amount","type":"uint256","internalType":"uint256"},{"name":"timestamp","type":"uint256","internalType":"uint256"},{"name":"description","type":"string","internalType":"string"},{"name":"isVerified","type":"bool","internalType":"bool"}]}],"stateMutability":"view"},{"type":"function","name":"getMemberInfo","inputs":[{"name":"_groupId","type":"uint256","internalType":"uint256"},{"name":"_member","type":"address","internalType":"address"}],"outputs":[{"name":"","type":"tuple","internalType":"struct ITsaroSafeData.Member","components":[{"name":"user","type":"address","internalType":"address"},{"name":"contribution","type":"uint256","internalType":"uint256"},{"name":"lastContribution","type":"uint256","internalType":"uint256"},{"name":"isActive","type":"bool","internalType":"bool"},{"name":"joinedAt","type":"uint256","internalType":"uint256"}]}],"stateMutability":"view"},{"type":"function","name":"getPublicGroups","inputs":[{"name":"_offset","type":"uint256","internalType":"uint256"},{"name":"_limit","type":"uint256","internalType":"uint256"}],"outputs":[{"name":"","type":"tuple[]","internalType":"struct ITsaroSafeData.Group[]","components":[{"name":"id","type":"uint256","internalType":"uint256"},{"name":"name","type":"string","internalType":"string"},{"name":"description","type":"string","internalType":"string"},{"name":"isPrivate","type":"bool","internalType":"bool"},{"name":"creator","type":"address","internalType":"address"},{"name":"targetAmount","type":"uint256","internalType":"uint256"},{"name":"currentAmount","type":"uint256","internalType":"uint256"},{"name":"memberLimit","type":"uint256","internalType":"uint256"},{"name":"createdAt","type":"uint256","internalType":"uint256"},{"name":"endDate","type":"uint256","internalType":"uint256"},{"name":"isActive","type":"bool","internalType":"bool"},{"name":"isCompleted","type":"bool","internalType":"bool"}]}],"stateMutability":"view"},{"type":"function","name":"getUserGroups","inputs":[{"name":"_user","type":"address","internalType":"address"}],"outputs":[{"name":"","type":"uint256[]","internalType":"uint256[]"}],"stateMutability":"view"},{"type":"function","name":"groupContributions","inputs":[{"name":"","type":"uint256","internalType":"uint256"},{"name":"","type":"uint256","internalType":"uint256"}],"outputs":[{"name":"contributionId","type":"uint256","internalType":"uint256"},{"name":"member","type":"address","internalType":"address"},{"name":"groupId","type":"uint256","internalType":"uint256"},{"name":"amount","type":"uint256","internalType":"uint256"},{"name":"timestamp","type":"uint256","internalType":"uint256"},{"name":"description","type":"string","internalType":"string"},{"name":"isVerified","type":"bool","internalType":"bool"}],"stateMutability":"view"},{"type":"function","name":"groupGoalDeadlines","inputs":[{"name":"","type":"uint256","internalType":"uint256"}],"outputs":[{"name":"","type":"uint256","internalType":"uint256"}],"stateMutability":"view"},{"type":"function","name":"groupGoals","inputs":[{"name":"","type":"uint256","internalType":"uint256"}],"outputs":[{"name":"groupId","type":"uint256","internalType":"uint256"},{"name":"targetAmount","type":"uint256","internalType":"uint256"},{"name":"currentAmount","type":"uint256","internalType":"uint256"},{"name":"deadline","type":"uint256","internalType":"uint256"},{"name":"isCompleted","type":"bool","internalType":"bool"},{"name":"createdAt","type":"uint256","internalType":"uint256"},{"name":"completedAt","type":"uint256","internalType":"uint256"},{"name":"progressPercentage","type":"uint256","internalType":"uint256"}],"stateMutability":"view"},{"type":"function","name":"groupMemberList","inputs":[{"name":"","type":"uint256","internalType":"uint256"},{"name":"","type":"uint256","internalType":"uint256"}],"outputs":[{"name":"","type":"address","internalType":"address"}],"stateMutability":"view"},{"type":"function","name":"groupMembers","inputs":[{"name":"","type":"uint256","internalType":"uint256"},{"name":"","type":"address","internalType":"address"}],"outputs":[{"name":"user","type":"address","internalType":"address"},{"name":"contribution","type":"uint256","internalType":"uint256"},{"name":"lastContribution","type":"uint256","internalType":"uint256"},{"name":"isActive","type":"bool","internalType":"bool"},{"name":"joinedAt","type":"uint256","internalType":"uint256"}],"stateMutability":"view"},{"type":"function","name":"groupMilestones","inputs":[{"name":"","type":"uint256","internalType":"uint256"},{"name":"","type":"uint256","internalType":"uint256"}],"outputs":[{"name":"milestoneId","type":"uint256","internalType":"uint256"},{"name":"groupId","type":"uint256","internalType":"uint256"},{"name":"targetAmount","type":"uint256","internalType":"uint256"},{"name":"description","type":"string","internalType":"string"},{"name":"isReached","type":"bool","internalType":"bool"},{"name":"reachedAt","type":"uint256","internalType":"uint256"},{"name":"createdAt","type":"uint256","internalType":"uint256"}],"stateMutability":"view"},{"type":"function","name":"groupTotalAmount","inputs":[{"name":"","type":"uint256","internalType":"uint256"}],"outputs":[{"name":"","type":"uint256","internalType":"uint256"}],"stateMutability":"view"},{"type":"function","name":"groupTotalContributions","inputs":[{"name":"","type":"uint256","internalType":"uint256"}],"outputs":[{"name":"","type":"uint256","internalType":"uint256"}],"stateMutability":"view"},{"type":"function","name":"groups","inputs":[{"name":"","type":"uint256","internalType":"uint256"}],"outputs":[{"name":"id","type":"uint256","internalType":"uint256"},{"name":"name","type":"string","internalType":"string"},{"name":"description","type":"string","internalType":"string"},{"name":"isPrivate","type":"bool","internalType":"bool"},{"name":"creator","type":"address","internalType":"address"},{"name":"targetAmount","type":"uint256","internalType":"uint256"},{"name":"currentAmount","type":"uint256","internalType":"uint256"},{"name":"memberLimit","type":"uint256","internalType":"uint256"},{"name":"createdAt","type":"uint256","internalType":"uint256"},{"name":"endDate","type":"uint256","internalType":"uint256"},{"name":"isActive","type":"bool","internalType":"bool"},{"name":"isCompleted","type":"bool","internalType":"bool"}],"stateMutability":"view"},{"type":"function","name":"isGroupMember","inputs":[{"name":"_groupId","type":"uint256","internalType":"uint256"},{"name":"_user","type":"address","internalType":"address"}],"outputs":[{"name":"","type":"bool","internalType":"bool"}],"stateMutability":"view"},{"type":"function","name":"joinGroup","inputs":[{"name":"_groupId","type":"uint256","internalType":"uint256"}],"outputs":[],"stateMutability":"nonpayable"},{"type":"function","name":"leaveGroup","inputs":[{"name":"_groupId","type":"uint256","internalType":"uint256"}],"outputs":[],"stateMutability":"nonpayable"},{"type":"function","name":"makeContribution","inputs":[{"name":"_groupId","type":"uint256","internalType":"uint256"},{"name":"_amount","type":"uint256","internalType":"uint256"},{"name":"_description","type":"string","internalType":"string"}],"outputs":[],"stateMutability":"nonpayable"},{"type":"function","name":"memberTotalAmount","inputs":[{"name":"","type":"address","internalType":"address"},{"name":"","type":"uint256","internalType":"uint256"}],"outputs":[{"name":"","type":"uint256","internalType":"uint256"}],"stateMutability":"view"},{"type":"function","name":"memberTotalContributions","inputs":[{"name":"","type":"address","internalType":"address"},{"name":"","type":"uint256","internalType":"uint256"}],"outputs":[{"name":"","type":"uint256","internalType":"uint256"}],"stateMutability":"view"},{"type":"function","name":"nextContributionId","inputs":[],"outputs":[{"name":"","type":"uint256","internalType":"uint256"}],"stateMutability":"view"},{"type":"function","name":"nextGroupId","inputs":[],"outputs":[{"name":"","type":"uint256","internalType":"uint256"}],"stateMutability":"view"},{"type":"function","name":"nextMilestoneId","inputs":[],"outputs":[{"name":"","type":"uint256","internalType":"uint256"}],"stateMutability":"view"},{"type":"function","name":"removeMember","inputs":[{"name":"_groupId","type":"uint256","internalType":"uint256"},{"name":"_member","type":"address","internalType":"address"}],"outputs":[],"stateMutability":"nonpayable"},{"type":"function","name":"toggleGroupPrivacy","inputs":[{"name":"_groupId","type":"uint256","internalType":"uint256"}],"outputs":[],"stateMutability":"nonpayable"},{"type":"function","name":"updateEndDate","inputs":[{"name":"_groupId","type":"uint256","internalType":"uint256"},{"name":"_newEndDate","type":"uint256","internalType":"uint256"}],"outputs":[],"stateMutability":"nonpayable"},{"type":"function","name":"updateGroupDeadline","inputs":[{"name":"_groupId","type":"uint256","internalType":"uint256"},{"name":"_newDeadline","type":"uint256","internalType":"uint256"}],"outputs":[],"stateMutability":"nonpayable"},{"type":"function","name":"updateGroupMetadata","inputs":[{"name":"_groupId","type":"uint256","internalType":"uint256"},{"name":"_name","type":"string","internalType":"string"},{"name":"_description","type":"string","internalType":"string"}],"outputs":[],"stateMutability":"nonpayable"},{"type":"function","name":"updateGroupTarget","inputs":[{"name":"_groupId","type":"uint256","internalType":"uint256"},{"name":"_newTarget","type":"uint256","internalType":"uint256"}],"outputs":[],"stateMutability":"nonpayable"},{"type":"function","name":"updateMemberLimit","inputs":[{"name":"_groupId","type":"uint256","internalType":"uint256"},{"name":"_newLimit","type":"uint256","internalType":"uint256"}],"outputs":[],"stateMutability":"nonpayable"},{"type":"function","name":"userGroups","inputs":[{"name":"","type":"address","internalType":"address"},{"name":"","type":"uint256","internalType":"uint256"}],"outputs":[{"name":"","type":"uint256","internalType":"uint256"}],"stateMutability":"view"},{"type":"function","name":"verifyContribution","inputs":[{"name":"_groupId","type":"uint256","internalType":"uint256"},{"name":"_contributionId","type":"uint256","internalType":"uint256"},{"name":"_verified","type":"bool","internalType":"bool"}],"outputs":[],"stateMutability":"nonpayable"},{"type":"event","name":"ContributionMade","inputs":[{"name":"contributionId","type":"uint256","indexed":true,"internalType":"uint256"},{"name":"groupId","type":"uint256","indexed":true,"internalType":"uint256"},{"name":"member","type":"address","indexed":true,"internalType":"address"},{"name":"amount","type":"uint256","indexed":false,"internalType":"uint256"},{"name":"description","type":"string","indexed":false,"internalType":"string"},{"name":"timestamp","type":"uint256","indexed":false,"internalType":"uint256"}],"anonymous":false},{"type":"event","name":"ContributionVerified","inputs":[{"name":"contributionId","type":"uint256","indexed":true,"internalType":"uint256"},{"name":"groupId","type":"uint256","indexed":true,"internalType":"uint256"},{"name":"member","type":"address","indexed":true,"internalType":"address"},{"name":"verified","type":"bool","indexed":false,"internalType":"bool"}],"anonymous":false},{"type":"event","name":"GoalCompleted","inputs":[{"name":"groupId","type":"uint256","indexed":true,"internalType":"uint256"},{"name":"targetAmount","type":"uint256","indexed":false,"internalType":"uint256"},{"name":"actualAmount","type":"uint256","indexed":false,"internalType":"uint256"},{"name":"completedAt","type":"uint256","indexed":false,"internalType":"uint256"}],"anonymous":false},{"type":"event","name":"GoalSet","inputs":[{"name":"groupId","type":"uint256","indexed":true,"internalType":"uint256"},{"name":"targetAmount","type":"uint256","indexed":false,"internalType":"uint256"},{"name":"deadline","type":"uint256","indexed":false,"internalType":"uint256"},{"name":"createdAt","type":"uint256","indexed":false,"internalType":"uint256"}],"anonymous":false},{"type":"event","name":"GoalUpdated","inputs":[{"name":"groupId","type":"uint256","indexed":true,"internalType":"uint256"},{"name":"oldTarget","type":"uint256","indexed":false,"internalType":"uint256"},{"name":"newTarget","type":"uint256","indexed":false,"internalType":"uint256"},{"name":"updater","type":"address","indexed":true,"internalType":"address"}],"anonymous":false},{"type":"event","name":"GroupCreated","inputs":[{"name":"groupId","type":"uint256","indexed":true,"internalType":"uint256"},{"name":"creator","type":"address","indexed":true,"internalType":"address"},{"name":"name","type":"string","indexed":false,"internalType":"string"},{"name":"isPrivate","type":"bool","indexed":false,"internalType":"bool"},{"name":"targetAmount","type":"uint256","indexed":false,"internalType":"uint256"},{"name":"memberLimit","type":"uint256","indexed":false,"internalType":"uint256"},{"name":"endDate","type":"uint256","indexed":false,"internalType":"uint256"}],"anonymous":false},{"type":"event","name":"GroupUpdated","inputs":[{"name":"groupId","type":"uint256","indexed":true,"internalType":"uint256"},{"name":"field","type":"string","indexed":false,"internalType":"string"},{"name":"value","type":"string","indexed":false,"internalType":"string"}],"anonymous":false},{"type":"event","name":"MemberJoined","inputs":[{"name":"groupId","type":"uint256","indexed":true,"internalType":"uint256"},{"name":"member","type":"address","indexed":true,"internalType":"address"}],"anonymous":false},{"type":"event","name":"MemberLeft","inputs":[{"name":"groupId","type":"uint256","indexed":true,"internalType":"uint256"},{"name":"member","type":"address","indexed":true,"internalType":"address"}],"anonymous":false},{"type":"event","name":"MilestoneReached","inputs":[{"name":"milestoneId","type":"uint256","indexed":true,"internalType":"uint256"},{"name":"groupId","type":"uint256","indexed":true,"internalType":"uint256"},{"name":"targetAmount","type":"uint256","indexed":false,"internalType":"uint256"},{"name":"reachedAt","type":"uint256","indexed":false,"internalType":"uint256"}],"anonymous":false},{"type":"event","name":"ProgressUpdated","inputs":[{"name":"groupId","type":"uint256","indexed":true,"internalType":"uint256"},{"name":"currentAmount","type":"uint256","indexed":false,"internalType":"uint256"},{"name":"targetAmount","type":"uint256","indexed":false,"internalType":"uint256"},{"name":"progressPercentage","type":"uint256","indexed":false,"internalType":"uint256"}],"anonymous":false}],"bytecode":{"object":"0x6080806040523460225760015f5560018055600160025561493490816100278239f35b5f80fdfe60806040526004361015610011575f80fd5b5f3560e01c80630521c7c7146102e4578063154fd9a6146102df578063160192d1146102da5780631e67939e146102d55780631ecdb2c4146102d057806322641c2b146102cb5780632a9309f2146102c65780632bc14a2d146102c157806333471df5146102bc57806336cc8130146102b75780633a9a22d8146102b25780633ce7611f146102ad5780633da04e4a146102a85780635226dd97146102a357806359c1548b1461029e5780635eda7a761461029957806360a9e097146102945780636be7658b1461028f5780636e4803481461028a57806373aba54f14610285578063767cdb1f1461028057806379eafb7f1461027b5780637a3c96c5146102765780637c3381dd146102715780637dfc33c91461026c578063843f587f146102675780638884edc8146102625780639201f6631461025d57806396324bd414610258578063982894f81461025357806399712bcb1461024e578063b5bb02bd14610249578063bbcb441c14610244578063bfeb56071461023f578063c79c60e51461023a578063c9861dcb14610235578063c987c73214610230578063caf5f07e1461022b578063ceb6065414610226578063d03a800914610221578063e2417e121461021c578063e452849714610217578063e6232ba114610212578063eed02e4b1461020d5763f3d3da5114610208575f80fd5b612d01565b612b93565b612ab0565b612a3c565b6129af565b61294b565b612844565b6126fa565b612534565b61239b565b61224f565b6121e8565b6121a3565b61211e565b611fdf565b611e67565b611dcf565b611d34565b611c08565b6118b7565b611699565b61160c565b611534565b6114f7565b6114cd565b611458565b6112e2565b611123565b6110cb565b61109a565b611070565b610ff4565b610d9b565b610d45565b610cf3565b610bb6565b610906565b610826565b6106e6565b6105bc565b6104e8565b6103da565b6103a1565b610377565b610332565b600435906001600160a01b03821682036102ff57565b5f80fd5b602435906001600160a01b03821682036102ff57565b6001600160a01b03165f90815260066020526040902090565b346102ff5760403660031901126102ff5761034b6102e9565b6024359060018060a01b03165f52600b60205260405f20905f52602052602060405f2054604051908152f35b346102ff5760203660031901126102ff576004355f526009602052602060405f2054604051908152f35b346102ff5760403660031901126102ff576103d860043560243590805f5260036020526103d360405f20541515612e30565b612e73565b005b346102ff5760403660031901126102ff576104e461045a6004356103fc610303565b905f608060405161040c81610e97565b8281528260208201528260408201528260608201520152805f52600360205261043a60405f20541515612e30565b5f52600460205260405f209060018060a01b03165f5260205260405f2090565b60046040519161046983610e97565b60018060a01b038154168352600181015460208401526002810154604084015260ff60038201541615156060840152015460808201526040519182918291909160808060a083019460018060a01b03815116845260208101516020850152604081015160408501526060810151151560608501520151910152565b0390f35b346102ff5760203660031901126102ff57600435805f52600360205261051360405f20541515612e30565b805f52600360205261053860018060a01b03600360405f20015460081c163314612fcb565b805f52600360205261055360ff600960405f2001541661302a565b805f526003602052600960405f200160ff1981541690555f5160206148df5f395f51905f5260c060405160408152600660408201526573746174757360d01b606082015260806020820152600b60808201526a19195858dd1a5d985d195960aa1b60a0820152a2005b346102ff5760403660031901126102ff57600435602435815f5260036020526105ea60405f20541515612e30565b815f52600360205261060f60018060a01b03600360405f20015460081c163314612fcb565b815f52600360205261062a60ff600960405f2001541661302a565b61063581151561306c565b61064260648211156130c4565b815f52600560205260405f2054811061068b576006610669835f52600360205260405f2090565b01555f5160206148df5f395f51905f52604051806106868161312a565b0390a2005b60405162461bcd60e51b815260206004820152602d60248201527f4e6577206c696d69742063616e6e6f74206265206c657373207468616e20637560448201526c7272656e74206d656d6265727360981b6064820152608490fd5b346102ff5760203660031901126102ff57600435805f52600360205261071160405f20541515612e30565b5f52600c60205260405f20600281015490606482029180830460641490151715610757576104e491600161074792015490613185565b6040519081529081906020820190565b61315b565b805180835260209291819084018484015e5f828201840152601f01601f1916010190565b602081016020825282518091526040820191602060408360051b8301019401925f915b8383106107b257505050505090565b9091929394602080600192603f198582030186528851908151815282820151838201526040820151604082015260c0806107fb606085015160e0606086015260e085019061075c565b9360808101511515608085015260a081015160a08501520151910152970193019301919392906107a3565b346102ff5760203660031901126102ff57600435805f52600360205261085160405f20541515612e30565b5f52600d60205260405f208054610867816131a3565b916108756040519384610eee565b81835260208301905f5260205f205f915b83831061089b57604051806104e48782610780565b600760206001926040516108ae81610eb7565b855481528486015483820152600286015460408201526108d060038701610f0f565b6060820152600486015460ff1615156080820152600586015460a0820152600686015460c0820152815201920192019190610886565b346102ff5760203660031901126102ff57600435805f52600360205261093160405f20541515612e30565b805f52600460205261096460ff600361095c60405f203360018060a01b03165f5260205260405f2090565b0154166131ba565b6109d26109cd6109c96009610981855f52600360205260405f2090565b60038101546109af906109a79060081c6001600160a01b03165b6001600160a01b031690565b3314156131fb565b6109be6008820154421061326d565b015460081c60ff1690565b1590565b6132c7565b610a0d6003610a02336109ed855f52600460205260405f2090565b9060018060a01b03165f5260205260405f2090565b01805460ff19169055565b610a1f815f52600560205260405f2090565b5f5b815480821015610b6c5761099b610a52610a3b84866110b6565b9054339360039290921b1c6001600160a01b031690565b14610a605750600101610a21565b610ac59291610a9c610a95610a80610a7a610ac095613313565b866110b6565b905460039190911b1c6001600160a01b031690565b91846110b6565b81546001600160a01b0393841660039290921b91821b9390911b1916919091179055565b613342565b335f9081526006602052604090205f5b815480821015610b645783610af7610aed84866110b6565b90549060031b1c90565b14610b055750600101610ad5565b610b3c9291610b1f610a95610aed610a7a610b3795613313565b90919082549060031b91821b915f19901b1916179055565b613373565b33907fa8dcd974806422d974a6135dd981896f1694065789986f7ba7947fbb4759e8995f80a3005b505050610b3c565b505050610ac5565b60206040818301928281528451809452019201905f5b818110610b975750505090565b82516001600160a01b0316845260209384019390920191600101610b8a565b346102ff5760203660031901126102ff57600435805f526003602052610be160405f20541515612e30565b5f52600560205260405f206040519081602082549182815201915f5260205f20905f5b818110610c27576104e485610c1b81870382610eee565b60405191829182610b74565b82546001600160a01b0316845260209093019260019283019201610c04565b602081016020825282518091526040820191602060408360051b8301019401925f915b838310610c7857505050505090565b9091929394602080600192603f1985820301865288519081518152848060a01b0383830151168382015260408201516040820152606082015160608201526080820151608082015260c080610cdc60a085015160e060a086015260e085019061075c565b930151151591015297019301930191939290610c69565b346102ff5760803660031901126102ff576104e4610d39600435610d15610303565b6044359060643592805f526003602052610d3460405f20541515612e30565b613589565b60405191829182610c46565b346102ff575f3660031901126102ff576020600154604051908152f35b60206040818301928281528451809452019201905f5b818110610d855750505090565b8251845260209384019390920191600101610d78565b346102ff5760203660031901126102ff576001600160a01b03610dbc6102e9565b165f52600660205260405f206040519081602082549182815201915f5260205f20905f5b818110610e03576104e485610df781870382610eee565b60405191829182610d62565b8254845260209093019260019283019201610de0565b634e487b7160e01b5f52603260045260245ffd5b8054821015610e46575f52600760205f20910201905f90565b610e19565b90600182811c92168015610e79575b6020831014610e6557565b634e487b7160e01b5f52602260045260245ffd5b91607f1691610e5a565b634e487b7160e01b5f52604160045260245ffd5b60a081019081106001600160401b03821117610eb257604052565b610e83565b60e081019081106001600160401b03821117610eb257604052565b61010081019081106001600160401b03821117610eb257604052565b90601f801991011681019081106001600160401b03821117610eb257604052565b9060405191825f825492610f2284610e4b565b8084529360018116908115610f8d5750600114610f49575b50610f4792500383610eee565b565b90505f9291925260205f20905f915b818310610f71575050906020610f47928201015f610f3a565b6020919350806001915483858901015201910190918492610f58565b905060209250610f4794915060ff191682840152151560051b8201015f610f3a565b959260c09592610fec9592999899885260018060a01b0316602088015260408701526060860152608085015260e060a085015260e084019061075c565b931515910152565b346102ff5760403660031901126102ff57600435602435905f52600760205260405f209081548110156102ff5761102a91610e2d565b5080546104e460018060a01b0360018401541692600281015490600381015460048201549060ff600661105f60058601610f0f565b940154169360405197889788610faf565b346102ff5760203660031901126102ff576004355f526008602052602060405f2054604051908152f35b346102ff575f3660031901126102ff5760205f54604051908152f35b8054821015610e46575f5260205f2001905f90565b346102ff5760403660031901126102ff576110e46102e9565b6001600160a01b03165f908152600660205260409020805460243591908210156102ff57602091611114916110b6565b90549060031b1c604051908152f35b346102ff5760403660031901126102ff5760043561113f610303565b815f52600360205261115660405f20541515612e30565b815f52600360205261117b60018060a01b03600360405f20015460081c163314612fcb565b815f52600360205261119660ff600960405f2001541661302a565b6001600160a01b038116916111ad338414156136d5565b6111d86111d360036111cb856109ed865f52600460205260405f2090565b015460ff1690565b61371a565b6111f36003610a02846109ed855f52600460205260405f2090565b611205815f52600560205260405f2090565b915f5b8354808210156112c2578561122361099b610a8085896110b6565b146112315750600101611208565b93610ac061031992610a9c610a95610a80610a7a61124f999a613313565b905f5b8254808210156112b9578261126a610aed84876110b6565b146112785750600101611252565b611293929391610b1f610a95610aed610a7a610b3795613313565b7fa8dcd974806422d974a6135dd981896f1694065789986f7ba7947fbb4759e8995f80a3005b50509050611293565b50506001600160a01b03165f90815260066020526040902090915061124f565b346102ff5760203660031901126102ff57600435805f52600360205261130d60405f20541515612e30565b5f90805f5260086020526104e460405f205491805f52600960205260405f205493815f52600560205260405f2054915f52600760205260405f20805480611395575b5050811561138e576113618286613185565b915b604051958695869192608093969594919660a084019784526020840152604083015260608201520152565b5f91611363565b60049250906113a66113ac92613313565b90610e2d565b5001545f8061134f565b60405190610f4760e083610eee565b60405190610f4761018083610eee565b60405190610f4760a083610eee565b60405190610f4761010083610eee565b81601f820112156102ff578035906001600160401b038211610eb25760405192611428601f8401601f191660200185610eee565b828452602083830101116102ff57815f926020809301838601378301015290565b6044359081151582036102ff57565b346102ff5760c03660031901126102ff576004356001600160401b0381116102ff576114889036906004016113f4565b6024356001600160401b0381116102ff576104e4916114ae6107479236906004016113f4565b6114b6611449565b60643590608435926114c760a43590565b94613c71565b346102ff5760203660031901126102ff576004355f52600e602052602060405f2054604051908152f35b346102ff5760603660031901126102ff576104e4610d3960043560243560443591805f52600360205261152f60405f20541515612e30565b613ee5565b346102ff5760203660031901126102ff57600435805f52600360205261155f60405f20541515612e30565b805f52600360205261158460018060a01b03600360405f20015460081c163314612fcb565b805f52600360205261159f60ff600960405f2001541661302a565b5f81815260036020819052604090912001805460ff808216151660ff199091168117909155156115ee575f5160206148df5f395f51905f526106866115e2613f9f565b60405191829182613fc4565b5f5160206148df5f395f51905f52610686611607613f7b565b6115e2565b346102ff5760403660031901126102ff5761164c60043561162b610303565b905f52600460205260405f209060018060a01b03165f5260205260405f2090565b8054600182015460028301546003840154600490940154604080516001600160a01b03909516855260208501939093529183015260ff90921615156060820152608081019190915260a090f35b346102ff5760603660031901126102ff576004356024356001600160401b0381116102ff576116cc9036906004016113f4565b906044356001600160401b0381116102ff576116ec9036906004016113f4565b815f52600360205261170360405f20541515612e30565b815f52600360205261172860018060a01b03600360405f20015460081c163314612fcb565b815f52600360205261174360ff600960405f2001541661302a565b61174f8351151561375d565b61175d6064845111156137a9565b61176c6101f4825111156137eb565b815f526003602052600160405f200183516001600160401b038111610eb25761179f816117998454610e4b565b84613931565b6020601f82116001146118155790806117d2926117ef96975f9261180a575b50508160011b915f199060031b1c19161790565b90555b60026117e9845f52600360205260405f2090565b01613980565b5f5160206148df5f395f51905f526040518061068681613ff3565b015190505f806117be565b601f19821695611828845f5260205f2090565b965f5b81811061186a5750916117ef969791846001959410611852575b505050811b0190556117d5565b01515f1960f88460031b161c191690555f8080611845565b8383015189556001909801976020938401930161182b565b60606003198201126102ff576004359160243591604435906001600160401b0382116102ff576118b4916004016113f4565b90565b346102ff577ff8b36a7cfd564086e18e5fe39a1920bf8cb069c7c5d3cc6398cd39836e23f4556118e636611882565b825f94939452600360205261190060405f20541515612e30565b835f52600460205261192b60ff600361095c60405f203360018060a01b03165f5260205260405f2090565b835f52600360205261194660ff600960405f2001541661302a565b611951821515614021565b61195f60c8825111156137eb565b610686611974855f52600360205260405f2090565b9161198460088401544210614080565b60098301906119a361199e6109c9845460ff9060081c1690565b6140be565b866001546119b86119b38261354f565b600155565b611a016119c36113b6565b8281523360208201528360408201528860608201524260808201528460a08201525f60c08201526119fc845f52600760205260405f2090565b61410a565b335f908152600a60205260409020611a239083905b905f5260205260405f2090565b611a2d815461354f565b9055335f908152600b60205260409020611a48908390611a16565b611a5388825461357c565b9055611a67825f52600860205260405f2090565b611a71815461354f565b9055611a85825f52600960205260405f2090565b611a9088825461357c565b90557f7fc8d5f624dbe63c32911e35f6f1c33e66b5f321aba92bda51230a3895db51c9611b6f6005880198611ac6818b5461357c565b8a556001611ae0336109ed885f52600460205260405f2090565b01611aec82825461357c565b9055426002611b07336109ed895f52600460205260405f2090565b0155611b1b855f52600c60205260405f2090565b6002810197611b2b838a5461357c565b8955611b37895461316f565b9a6004611b4a600185019d8e5490613185565b9d600785019e8f55549101541115611b94575b505060405191829133974291846141ab565b0390a45491549254604051938493846040919493926060820195825260208201520152565b805461ff00191661010017905560048101805460ff19166001179055600642910155847f24d2ced78665f7fe3cd68f3c386e9868a6a84eebe83f4d1c004f6b30479ad9628a548954611bfe6040519283924291846040919493926060820195825260208201520152565b0390a25f80611b5d565b346102ff5760403660031901126102ff57600435602435815f526003602052611c3660405f20541515612e30565b815f526003602052611c5b60018060a01b03600360405f20015460081c163314612fcb565b815f526003602052611c7660ff600960405f2001541661302a565b42811115611cef57611c92611c8a4261355d565b8211156141cd565b806003611ca7845f52600360205260405f2090565b826008611cbc875f52600c60205260405f2090565b9201550155611cd3825f52600e60205260405f2090565b555f5160206148df5f395f51905f526040518061068681614219565b60405162461bcd60e51b815260206004820152601e60248201527f446561646c696e65206d75737420626520696e207468652066757475726500006044820152606490fd5b346102ff575f3660031901126102ff576020600254604051908152f35b97939c9b999591610f479b9793611d80611d8e926101609c98948c5261018060208d01526101808c019061075c565b908a820360408c015261075c565b9c151560608901526001600160a01b0316608088015260a087015260c086015260e08501526101008401526101208301521515610140820152911515910152565b346102ff5760203660031901126102ff576004355f52600360205260ff60405f206104e4815491611e0260018201610f0f565b611e0e60028301610f0f565b916003810154600482015460058301546006840154916007850154936009600887015496015499611e438b60ff9060081c1690565b6040519c8d9c919a911698600884901c6001600160a01b03169360ff16928d611d51565b346102ff5760403660031901126102ff576004357ff8b36a7cfd564086e18e5fe39a1920bf8cb069c7c5d3cc6398cd39836e23f455602435825f526003602052611eb660405f20541515612e30565b825f526003602052611edb60018060a01b03600360405f20015460081c163314612fcb565b825f526003602052611ef660ff600960405f2001541661302a565b611f01811515614247565b611f216005611f18855f52600360205260405f2090565b01548211614293565b611f33835f52600360205260405f2090565b906106866004611f4b865f52600c60205260405f2090565b93019180835493556001840192818455867fb3c87d39c639d4908dae1044b79dc30d2934b76a7a8d112e22c777b853bc2e4b611fba60028801946007611f9c611f94885461316f565b8a5490613185565b99019889556040805195865260208601919091523394918291820190565b0390a35491549254604051938493846040919493926060820195825260208201520152565b346102ff5760203660031901126102ff576004355f52600c60205260405f2080546104e4600183015492600281015490600381015460ff60048301541660058301549160076006850154940154946040519889988994919260e0969399989794919961010087019a87526020870152604086015260608501521515608084015260a083015260c08201520152565b906118b49082518152610160806120aa6120986020870151610180602087015261018086019061075c565b6040870151858203604087015261075c565b606080870151151590850152946080818101516001600160a01b03169085015260a081015160a085015260c081015160c085015260e081015160e085015261010081015161010085015261012081015161012085015261211561014082015161014086019015159052565b01511515910152565b346102ff5760403660031901126102ff5761213d6024356004356144a3565b6040518091602082016020835281518091526040830190602060408260051b8601019301915f905b82821061217457505050500390f35b919360019193955060206121938192603f198a8203018652885161206d565b9601920192018594939192612165565b346102ff5760403660031901126102ff576121bc6102e9565b6024359060018060a01b03165f52600a60205260405f20905f52602052602060405f2054604051908152f35b346102ff5760403660031901126102ff57602060ff600361224260043561220d610303565b90805f5283865261222360405f20541515612e30565b5f526004855260405f209060018060a01b03165f5260205260405f2090565b0154166040519015158152f35b346102ff5761225d36611882565b825f52600360205261227460405f20541515612e30565b825f52600360205261229960018060a01b03600360405f20015460081c163314612fcb565b825f5260036020526122b460ff600960405f2001541661302a565b81156123465782612341916122e360046122d96103d8975f52600360205260405f2090565b01548511156145b0565b6122f160c8825111156137eb565b600254936123066123018661354f565b600255565b61230e6113b6565b948552826020860152604085015260608401525f60808401525f60a08401524260c08401525f52600d60205260405f2090565b614608565b60405162461bcd60e51b815260206004820152602760248201527f4d696c6573746f6e6520746172676574206d75737420626520677265617465726044820152660207468616e20360cc1b6064820152608490fd5b346102ff5760203660031901126102ff57600435805f5260036020526123c660405f20541515612e30565b805f52600360205260405f206104e46123dd6113c5565b92825484526123ee60018401610f0f565b60208501526123ff60028401610f0f565b6040850152612444612434600385015461242561241c8260ff1690565b15156060890152565b60081c6001600160a01b031690565b6001600160a01b03166080860152565b60048301549360a081019485526124c5600960058601549560c08401968752600681015460e0850152600781015461010085015260088101546101208501520154926124b76101606124ae6124998760ff1690565b15156101408701908152965b60081c60ff1690565b15159401938452565b5f52600560205260405f2090565b5493519451918215612527576124f16124e96124e9856124e48a61316f565b613185565b925b51151590565b926040519687968794919260a0949197969360c08701988752602087015260408601526060850152151560808401521515910152565b6124f16124e95f926124eb565b346102ff5760203660031901126102ff576104e46004355f60c060405161255a81610eb7565b8281528260208201528260408201528260608201528260808201528260a08201520152805f52600360205261259460405f20541515612e30565b61262b6125a9825f52600c60205260405f2090565b6125c36125be845f52600360205260405f2090565b6143e9565b505f60038201544281116126e4575b505f9080151592836126a7575b6001938061269e575b61267c575b60028101549060076001820154910154916126066113b6565b978852602088015260408701526060860152608085015260a0840152151560c0830152565b6040519182918291909160c08060e0830194805184526020810151602085015260408101516040850152606081015160608501526080810151608085015260a081015160a085015201511515910152565b9250612695816124e46001860154600287015490613321565b821015926125ed565b508215156125e8565b6126c16126b8600583015442613321565b62015180900490565b806126cd575b506125df565b81935060026126dd920154613185565b915f6126c7565b6126f491506126b8904290613321565b5f6125d2565b346102ff5760403660031901126102ff57600435612716610303565b815f52600360205261272d60405f20541515612e30565b6001600160a01b0381165f908152600a6020526040812061274f908490611a16565b549061278261277285611a168660018060a01b03165f52600b60205260405f2090565b54945f52600760205260405f2090565b80546001600160a01b0390941693805b6127dc575b509192506104e4915082156127d5576127b08385613185565b905b604051948594859094939260609260808301968352602083015260408201520152565b5f906127b2565b846127ef6127e983613313565b84610e2d565b50600101546001600160a01b0316146128115761280b90614750565b80612792565b6104e493945060049250906113a661282892613313565b50015482915f612797565b9060206118b492818152019061206d565b346102ff5760203660031901126102ff576004356128606142f6565b50805f52600360205261287860405f20541515612e30565b5f5260036020526104e460405f2061293f61293560096128966113c5565b93805485526128a760018201610f0f565b60208601526128b860028201610f0f565b60408601526128ee6128de60038301546124256128d58260ff1690565b151560608a0152565b6001600160a01b03166080870152565b600481015460a0860152600581015460c0860152600681015460e08601526007810154610100860152600881015461012086015201546124a560ff82161515610140860152565b1515610160830152565b60405191829182612833565b346102ff5760603660031901126102ff576103d860043560243561296d611449565b91805f52600360205261298560405f20541515612e30565b805f5260036020526129aa60018060a01b03600360405f20015460081c163314612fcb565b61475c565b346102ff5760403660031901126102ff57600435602435905f52600560205260405f2080548210156102ff576020916129e7916110b6565b905460405160039290921b1c6001600160a01b03168152f35b939092612a2b9260c0969998979486526020860152604085015260e0606085015260e084019061075c565b951515608083015260a08201520152565b346102ff5760403660031901126102ff57600435602435905f52600d60205260405f209081548110156102ff57612a7291610e2d565b5080546104e4600183015492600281015490612a9060038201610f0f565b60ff60048301541690600660058401549301549360405197889788612a00565b346102ff5760403660031901126102ff57600435602435815f526003602052612ade60405f20541515612e30565b815f526003602052612b0360018060a01b03600360405f20015460081c163314612fcb565b815f526003602052612b1e60ff600960405f2001541661302a565b612b29428211613886565b6301e13380420180421161075757612b43908211156138d2565b815f526003602052600860405f2001555f5160206148df5f395f51905f52604051604081526007604082015266656e644461746560c81b6060820152608060208201528061068660808201613110565b346102ff5760203660031901126102ff57600435805f526003602052612bbe60405f20541515612e30565b805f526003602052612bd960ff600960405f2001541661302a565b612c5d61199e6109c96009612bf6855f52600360205260405f2090565b612c2d612c286109c960036111cb612c168b5f52600460205260405f2090565b335f9081526020919091526040902090565b61484f565b612c4e612c42875f52600560205260405f2090565b5460068301541161489b565b6109be60088201544210614080565b612ca5612c686113d5565b3381525f60208201525f6040820152612c846060820160019052565b426080820152612ca0336109ed855f52600460205260405f2090565b613b3b565b612cc033612cbb835f52600560205260405f2090565b613b99565b335f908152600660205260409020612cd9908290613bbc565b33907f78da64a590c3052953ad9e0a5546bbf12bb68ae7634e3fb2a774e22a8c6557c15f80a3005b346102ff5760203660031901126102ff576004355f60e0604051612d2481610ed2565b8281528260208201528260408201528260608201528260808201528260a08201528260c08201520152805f526003602052612d6460405f20541515612e30565b5f52600c6020526104e460405f206007612d7c6113e4565b9180548352600181015460208401526002810154604084015260038101546060840152612db9612db0600483015460ff1690565b15156080850152565b600581015460a0840152600681015460c0840152015460e08201526040519182918291909160e0806101008301948051845260208101516020850152604081015160408501526060810151606085015260808101511515608085015260a081015160a085015260c081015160c08501520151910152565b15612e3757565b60405162461bcd60e51b815260206004820152601460248201527311dc9bdd5c08191bd95cc81b9bdd08195e1a5cdd60621b6044820152606490fd5b612e85815f52600d60205260405f2090565b91612e98825f52600c60205260405f2090565b925f5b8154811015612f905782612eaf8284610e2d565b505414612ebe57600101612e9b565b919293612edc6109c96004612ed38686610e2d565b50015460ff1690565b9081612f73575b50612eef575b50505050565b6002612f4e8383612f386004612f297f399e413c2b9933f953816da18a227514363d276c478ad74def50273dfa0166f298612f6798610e2d565b5001805460ff19166001179055565b612f428282610e2d565b50600542910155610e2d565b5001546040805191825242602083015290918291820190565b0390a35f808080612ee9565b6002915001546002612f858484610e2d565b50015411155f612ee3565b60405162461bcd60e51b8152602060048201526013602482015272135a5b195cdd1bdb99481b9bdd08199bdd5b99606a1b6044820152606490fd5b15612fd257565b60405162461bcd60e51b815260206004820152602a60248201527f4f6e6c792067726f75702063726561746f722063616e20706572666f726d20746044820152693434b99030b1ba34b7b760b11b6064820152608490fd5b1561303157565b60405162461bcd60e51b815260206004820152601360248201527247726f7570206973206e6f742061637469766560681b6044820152606490fd5b1561307357565b60405162461bcd60e51b815260206004820152602360248201527f4d656d626572206c696d6974206d75737420626520677265617465722074686160448201526206e20360ec1b6064820152608490fd5b156130cb57565b60405162461bcd60e51b815260206004820152601e60248201527f4d656d626572206c696d69742063616e6e6f74206578636565642031303000006044820152606490fd5b60078152661d5c19185d195960ca1b602082015260400190565b60806118b49160408152600b60408201526a1b595b58995c931a5b5a5d60aa1b606082015281602082015201613110565b634e487b7160e01b5f52601160045260245ffd5b9060648202918083046064149015171561075757565b811561318f570490565b634e487b7160e01b5f52601260045260245ffd5b6001600160401b038111610eb25760051b60200190565b156131c157565b60405162461bcd60e51b81526020600482015260126024820152712737ba10309033b937bab81036b2b6b132b960711b6044820152606490fd5b1561320257565b60405162461bcd60e51b815260206004820152603960248201527f43726561746f722063616e6e6f74206c656176652067726f75702e205573652060448201527f6465616374697661746547726f7570282920696e7374656164000000000000006064820152608490fd5b1561327457565b60405162461bcd60e51b815260206004820152602560248201527f43616e6e6f74206c656176652067726f75702061667465722069742068617320604482015264195b99195960da1b6064820152608490fd5b156132ce57565b60405162461bcd60e51b815260206004820152601c60248201527f43616e6e6f74206c6561766520636f6d706c657465642067726f7570000000006044820152606490fd5b5f1981019190821161075757565b9190820391821161075757565b634e487b7160e01b5f52603160045260245ffd5b8054801561336e575f19019061335882826110b6565b81549060018060a01b039060031b1b1916905555565b61332e565b8054801561336e575f19019061338982826110b6565b8154905f199060031b1b1916905555565b156133a157565b60405162461bcd60e51b815260206004820152600d60248201526c125b9d985b1a59081b1a5b5a5d609a1b6044820152606490fd5b6133df5f6131a3565b906133ed6040519283610eee565b5f825281601f196133fd5f6131a3565b01905f5b82811061340d57505050565b60209060405161341c81610eb7565b5f81525f838201525f60408201525f60608201525f6080820152606060a08201525f60c082015282828501015201613401565b90613459826131a3565b6134666040519182610eee565b8281528092613477601f19916131a3565b01905f5b82811061348757505050565b60209060405161349681610eb7565b5f81525f838201525f60408201525f60608201525f6080820152606060a08201525f60c08201528282850101520161347b565b8051821015610e465760209160051b010190565b90610f476040516134ed81610eb7565b8354815260018401546001600160a01b0316602082015260028401546040820152600384015460608201526004840154608082015292839060c0906135489060069061353b60058201610f0f565b60a0860152015460ff1690565b1515910152565b5f1981146107575760010190565b906301e13380820180921161075757565b906001820180921161075757565b9190820180921161075757565b6135b090939293831515806136ca575b6135a29061339a565b5f52600760205260405f2090565b9182546135bc8161344f565b935f935f5b838110613654575050505081841015613648576135f2916135e385928361357c565b90808211613640575b50613321565b906135fc8261344f565b925f5b83811061360d575050505090565b8061362361361d6001938561357c565b856134c9565b5161362e82886134c9565b5261363981876134c9565b50016135ff565b90505f6135ec565b505050506118b46133d6565b61367260016136638386610e2d565b5001546001600160a01b031690565b6001600160a01b0383811691161461368d575b6001016135c1565b946136c26001916136a76136a18987610e2d565b506134dd565b6136b1828b6134c9565b526136bc818a6134c9565b5061354f565b959050613685565b506064841115613599565b156136dc57565b60405162461bcd60e51b815260206004820152601660248201527521b0b73737ba103932b6b7bb32903cb7bab939b2b63360511b6044820152606490fd5b1561372157565b60405162461bcd60e51b81526020600482015260146024820152734d656d626572206973206e6f742061637469766560601b6044820152606490fd5b1561376457565b60405162461bcd60e51b815260206004820152601a60248201527f47726f7570206e616d652063616e6e6f7420626520656d7074790000000000006044820152606490fd5b156137b057565b60405162461bcd60e51b815260206004820152601360248201527247726f7570206e616d6520746f6f206c6f6e6760681b6044820152606490fd5b156137f257565b60405162461bcd60e51b81526020600482015260146024820152734465736372697074696f6e20746f6f206c6f6e6760601b6044820152606490fd5b1561383557565b60405162461bcd60e51b8152602060048201526024808201527f54617267657420616d6f756e74206d75737420626520677265617465722074686044820152630616e20360e41b6064820152608490fd5b1561388d57565b60405162461bcd60e51b815260206004820152601e60248201527f456e642064617465206d75737420626520696e207468652066757475726500006044820152606490fd5b156138d957565b60405162461bcd60e51b815260206004820152601d60248201527f456e6420646174652063616e6e6f7420657863656564203120796561720000006044820152606490fd5b634e487b7160e01b5f525f60045260245ffd5b601f821161393e57505050565b5f5260205f20906020601f840160051c83019310613976575b601f0160051c01905b81811061396b575050565b5f8155600101613960565b9091508190613957565b91909182516001600160401b038111610eb2576139a1816117998454610e4b565b6020601f82116001146139d45781906139d09394955f9261180a5750508160011b915f199060031b1c19161790565b9055565b601f198216906139e7845f5260205f2090565b915f5b818110613a2157509583600195969710613a09575b505050811b019055565b01515f1960f88460031b161c191690555f80806139ff565b9192602060018192868b0151815501940192016139ea565b90613b256101606009610f479484518155613a5b602086015160018301613980565b613a6c604086015160028301613980565b613ac560038201613a95613a836060890151151590565b829060ff801983541691151516179055565b60808701516001600160a01b03168154610100600160a81b03191660089190911b610100600160a81b0316179055565b60a0850151600482015560c0850151600582015560e08501516006820155610100850151600782015561012085015160088201550192613b1e613b0c610140830151151590565b859060ff801983541691151516179055565b0151151590565b815461ff00191690151560081b61ff0016179055565b815181546001600160a01b0319166001600160a01b0391909116178155906004906080906020810151600185015560408101516002850155613b9260608201511515600386019060ff801983541691151516179055565b0151910155565b90815491600160401b831015610eb25782610a9c916001610f47950181556110b6565b90815491600160401b831015610eb25782610b1f916001610f47950181556110b6565b9060e060079180518455602081015160018501556040810151600285015560608101516003850155613c2660808201511515600486019060ff801983541691151516179055565b60a0810151600585015560c081015160068501550151910155565b919594939092613c5b60809460a0855260a085019061075c565b9615156020840152604083015260608201520152565b613db59495917feebbab0dff3b7ab5679c6f989c9f06ffb963bb6d9071ee256af9f09535bbbdba857ff938ec35a71ea608c67cb09da433574ffd3cccf5dc41cab0f9c6b2ed6a3fe9519695613cc88551151561375d565b613cd66064865111156137a9565b613ce56101f4855111156137eb565b613cf082151561382e565b613cfb8a151561306c565b613d0860648b11156130c4565b613d13428711613886565b613d27613d1f4261355d565b8711156138d2565b613e98865f549b8c9b8c97613d3b8961354f565b5f55613d456113c5565b908982528a60208301526040820152613d6386606083019015159052565b3360808201528660a08201525f60c08201528260e08201524261010082015283610120820152613d97610140820160019052565b5f610160820152613db0895f52600360205260405f2090565b613a39565b613df8613dc06113d5565b3381525f60208201525f6040820152613ddc6060820160019052565b426080820152612ca0336109ed8b5f52600460205260405f2090565b613e0e33612cbb895f52600560205260405f2090565b335f908152600660205260409020613e27908890613bbc565b613e76613e326113e4565b8881528660208201525f60408201528360608201525f60808201524260a08201525f60c08201525f60e0820152613e71895f52600c60205260405f2090565b613bdf565b81613e89885f52600e60205260405f2090565b55604051948594339986613c41565b0390a3613edf60405192839233877f78da64a590c3052953ad9e0a5546bbf12bb68ae7634e3fb2a774e22a8c6557c15f80a390835260208301524260408301526060820190565b0390a290565b91909181151580613f70575b613efa9061339a565b5f52600760205260405f20908154908184101561364857613f20916135e385928361357c565b90613f2a8261344f565b925f5b838110613f3b575050505090565b80613f546136a1613f4e6001948661357c565b86610e2d565b613f5e82886134c9565b52613f6981876134c9565b5001613f2d565b506064821115613ef1565b60405190613f8a604083610eee565b60068252657075626c696360d01b6020830152565b60405190613fae604083610eee565b60078252667072697661746560c81b6020830152565b9060806118b4926040815260076040820152667072697661637960c81b6060820152816020820152019061075c565b60806118b4916040815260086040820152676d6574616461746160c01b606082015281602082015201613110565b1561402857565b60405162461bcd60e51b815260206004820152602a60248201527f436f6e747269627574696f6e20616d6f756e74206d75737420626520677265616044820152690746572207468616e20360b41b6064820152608490fd5b1561408757565b60405162461bcd60e51b815260206004820152600f60248201526e11dc9bdd5c081a185cc8195b991959608a1b6044820152606490fd5b156140c557565b60405162461bcd60e51b815260206004820152601a60248201527f47726f757020697320616c726561647920636f6d706c657465640000000000006044820152606490fd5b8054600160401b811015610eb25761412791600182018155610e2d565b6141a6578151815560208201516001820180546001600160a01b0319166001600160a01b0392909216919091179055610f47916006906141939060c090604081015160028601556060810151600386015560808101516004860155613b1e60a082015160058701613980565b91019060ff801983541691151516179055565b61391e565b9392916141c890604092865260606020870152606086019061075c565b930152565b156141d457565b60405162461bcd60e51b815260206004820152601d60248201527f446561646c696e652063616e6e6f7420657863656564203120796561720000006044820152606490fd5b60806118b491604081526008604082015267646561646c696e6560c01b606082015281602082015201613110565b1561424e57565b60405162461bcd60e51b815260206004820152601d60248201527f546172676574206d7573742062652067726561746572207468616e20300000006044820152606490fd5b1561429a57565b60405162461bcd60e51b815260206004820152602e60248201527f4e657720746172676574206d7573742062652067726561746572207468616e2060448201526d18dd5c9c995b9d08185b5bdd5b9d60921b6064820152608490fd5b6040519061018082018281106001600160401b03821117610eb2576040525f6101608382815260606020820152606060408201528260608201528260808201528260a08201528260c08201528260e08201528261010082015282610120820152826101408201520152565b60405190614370602083610eee565b5f80835282815b82811061438357505050565b60209061438e6142f6565b82828501015201614377565b906143a4826131a3565b6143b16040519182610eee565b82815280926143c2601f19916131a3565b01905f5b8281106143d257505050565b6020906143dd6142f6565b828285010152016143c6565b90610f4761449960096143fa6113c5565b948054865261440b60018201610f0f565b602087015261441c60028201610f0f565b604087015261445261444260038301546124256144398260ff1690565b151560608b0152565b6001600160a01b03166080880152565b600481015460a0870152600581015460c0870152600681015460e08701526007810154610100870152600881015461012087015201546124a560ff82161515610140870152565b1515610160840152565b811515806145a5575b6144b59061339a565b6144bf5f54613313565b918282101561459a576144d2908261357c565b91808311614592575b506144ee6144e98284613321565b61439a565b916144f95f9261356e565b81811115614508575050815290565b6145226109c960036111cb845f52600360205260405f2090565b80614575575b61453b575b6145369061354f565b6144f9565b9161456d614536916145586125be865f52600360205260405f2090565b61456282886134c9565b526136bc81876134c9565b92905061452d565b5061458d60096111cb835f52600360205260405f2090565b614528565b91505f6144db565b5050506118b4614361565b5060328211156144ac565b156145b757565b60405162461bcd60e51b8152602060048201526024808201527f4d696c6573746f6e652063616e6e6f74206578636565642067726f75702074616044820152631c99d95d60e21b6064820152608490fd5b8054600160401b811015610eb25761462591600182018155610e2d565b9190916141a6578051825560208101516001830155604081015160028301556003820160608201518051906001600160401b038211610eb2576146728261466c8554610e4b565b85613931565b602090601f83116001146146e057826006959360c095936146a7935f9261180a5750508160011b915f199060031b1c19161790565b90555b6146cf6146ba6080830151151590565b600486019060ff801983541691151516179055565b60a081015160058501550151910155565b90601f198316916146f4855f5260205f2090565b925f5b81811061473857509260019285926006989660c0989610614720575b505050811b0190556146aa565b01515f1960f88460031b161c191690555f8080614713565b929360206001819287860151815501950193016146f7565b8015610757575f190190565b919091614771815f52600760205260405f2090565b925f5b845481101561481157816147888287610e2d565b50541461479757600101614774565b6147eb81866147e68760066147d361480c977f3d72c33b42aa424d3a9ab133f1571e2fb2683c47e78e9eb769934f6b2b574e17999a9b9c610e2d565b50019060ff801983541691151516179055565b610e2d565b506001015460405195151586526001600160a01b0316949081906020820190565b0390a4565b60405162461bcd60e51b815260206004820152601660248201527510dbdb9d1c9a589d5d1a5bdb881b9bdd08199bdd5b9960521b6044820152606490fd5b1561485657565b60405162461bcd60e51b815260206004820152601e60248201527f416c72656164792061206d656d626572206f6620746869732067726f757000006044820152606490fd5b156148a257565b60405162461bcd60e51b815260206004820152601460248201527347726f757020697320617420636170616369747960601b6044820152606490fdfecb9c21f4ffc720068a2afb8fb43cc2e7ec19801b9940c57754f469221900363ca26469706673582212206ac7a05c8a818bcad74c05d74aa9e1bdcff3fe6f98da43baf06243a1c226282c64736f6c634300081c0033","linkReferences":{}},"methodIdentifiers":{"addGroupMilestone(uint256,uint256,string)":"c79c60e5","calculateProgressPercentage(uint256)":"2a9309f2","checkMilestoneStatus(uint256,uint256)":"160192d1","createGroup(string,string,bool,uint256,uint256,uint256)":"73aba54f","deactivateGroup(uint256)":"1ecdb2c4","getGroup(uint256)":"ceb60654","getGroupContributionSummary(uint256)":"6e480348","getGroupContributions(uint256,uint256,uint256)":"79eafb7f","getGroupGoal(uint256)":"f3d3da51","getGroupMembers(uint256)":"36cc8130","getGroupMilestones(uint256)":"2bc14a2d","getGroupProgress(uint256)":"c987c732","getGroupStats(uint256)":"c9861dcb","getMemberContributionSummary(uint256,address)":"caf5f07e","getMemberContributions(uint256,address,uint256,uint256)":"3a9a22d8","getMemberInfo(uint256,address)":"1e67939e","getPublicGroups(uint256,uint256)":"b5bb02bd","getUserGroups(address)":"3da04e4a","groupContributions(uint256,uint256)":"5226dd97","groupGoalDeadlines(uint256)":"767cdb1f","groupGoals(uint256)":"99712bcb","groupMemberList(uint256,uint256)":"e2417e12","groupMembers(uint256,address)":"7c3381dd","groupMilestones(uint256,uint256)":"e4528497","groupTotalAmount(uint256)":"154fd9a6","groupTotalContributions(uint256)":"59c1548b","groups(uint256)":"96324bd4","isGroupMember(uint256,address)":"bfeb5607","joinGroup(uint256)":"eed02e4b","leaveGroup(uint256)":"33471df5","makeContribution(uint256,uint256,string)":"843f587f","memberTotalAmount(address,uint256)":"0521c7c7","memberTotalContributions(address,uint256)":"bbcb441c","nextContributionId()":"3ce7611f","nextGroupId()":"5eda7a76","nextMilestoneId()":"9201f663","removeMember(uint256,address)":"6be7658b","toggleGroupPrivacy(uint256)":"7a3c96c5","updateEndDate(uint256,uint256)":"e6232ba1","updateGroupDeadline(uint256,uint256)":"8884edc8","updateGroupMetadata(uint256,string,string)":"7dfc33c9","updateGroupTarget(uint256,uint256)":"982894f8","updateMemberLimit(uint256,uint256)":"22641c2b","userGroups(address,uint256)":"60a9e097","verifyContribution(uint256,uint256,bool)":"d03a8009"},"id":21}