{"abi":[{"type":"function","name":"contribute","inputs":[{"name":"groupId","type":"uint256","internalType":"uint256"}],"outputs":[],"stateMutability":"payable"},{"type":"function","name":"createGroup","inputs":[{"name":"name","type":"string","internalType":"string"},{"name":"description","type":"string","internalType":"string"},{"name":"isPrivate","type":"bool","internalType":"bool"},{"name":"targetAmount","type":"uint256","internalType":"uint256"},{"name":"memberLimit","type":"uint256","internalType":"uint256"},{"name":"durationDays","type":"uint256","internalType":"uint256"}],"outputs":[{"name":"","type":"uint256","internalType":"uint256"}],"stateMutability":"nonpayable"},{"type":"function","name":"getGroup","inputs":[{"name":"groupId","type":"uint256","internalType":"uint256"}],"outputs":[{"name":"","type":"tuple","internalType":"struct TsaroSafeBasic.Group","components":[{"name":"id","type":"uint256","internalType":"uint256"},{"name":"name","type":"string","internalType":"string"},{"name":"description","type":"string","internalType":"string"},{"name":"isPrivate","type":"bool","internalType":"bool"},{"name":"creator","type":"address","internalType":"address"},{"name":"targetAmount","type":"uint256","internalType":"uint256"},{"name":"currentAmount","type":"uint256","internalType":"uint256"},{"name":"memberLimit","type":"uint256","internalType":"uint256"},{"name":"createdAt","type":"uint256","internalType":"uint256"},{"name":"endDate","type":"uint256","internalType":"uint256"},{"name":"isActive","type":"bool","internalType":"bool"},{"name":"isCompleted","type":"bool","internalType":"bool"}]}],"stateMutability":"view"},{"type":"function","name":"getGroupContributions","inputs":[{"name":"groupId","type":"uint256","internalType":"uint256"}],"outputs":[{"name":"","type":"tuple[]","internalType":"struct TsaroSafeBasic.Contribution[]","components":[{"name":"member","type":"address","internalType":"address"},{"name":"amount","type":"uint256","internalType":"uint256"},{"name":"timestamp","type":"uint256","internalType":"uint256"}]}],"stateMutability":"view"},{"type":"function","name":"getGroupMember","inputs":[{"name":"groupId","type":"uint256","internalType":"uint256"},{"name":"member","type":"address","internalType":"address"}],"outputs":[{"name":"","type":"tuple","internalType":"struct TsaroSafeBasic.Member","components":[{"name":"user","type":"address","internalType":"address"},{"name":"contribution","type":"uint256","internalType":"uint256"},{"name":"lastContribution","type":"uint256","internalType":"uint256"},{"name":"isActive","type":"bool","internalType":"bool"},{"name":"joinedAt","type":"uint256","internalType":"uint256"}]}],"stateMutability":"view"},{"type":"function","name":"getGroupMembers","inputs":[{"name":"groupId","type":"uint256","internalType":"uint256"}],"outputs":[{"name":"","type":"address[]","internalType":"address[]"}],"stateMutability":"view"},{"type":"function","name":"getTotalGroups","inputs":[],"outputs":[{"name":"","type":"uint256","internalType":"uint256"}],"stateMutability":"view"},{"type":"function","name":"getUserGroups","inputs":[{"name":"user","type":"address","internalType":"address"}],"outputs":[{"name":"","type":"uint256[]","internalType":"uint256[]"}],"stateMutability":"view"},{"type":"function","name":"groupContributions","inputs":[{"name":"","type":"uint256","internalType":"uint256"},{"name":"","type":"uint256","internalType":"uint256"}],"outputs":[{"name":"member","type":"address","internalType":"address"},{"name":"amount","type":"uint256","internalType":"uint256"},{"name":"timestamp","type":"uint256","internalType":"uint256"}],"stateMutability":"view"},{"type":"function","name":"groupMemberList","inputs":[{"name":"","type":"uint256","internalType":"uint256"},{"name":"","type":"uint256","internalType":"uint256"}],"outputs":[{"name":"","type":"address","internalType":"address"}],"stateMutability":"view"},{"type":"function","name":"groupMembers","inputs":[{"name":"","type":"uint256","internalType":"uint256"},{"name":"","type":"address","internalType":"address"}],"outputs":[{"name":"user","type":"address","internalType":"address"},{"name":"contribution","type":"uint256","internalType":"uint256"},{"name":"lastContribution","type":"uint256","internalType":"uint256"},{"name":"isActive","type":"bool","internalType":"bool"},{"name":"joinedAt","type":"uint256","internalType":"uint256"}],"stateMutability":"view"},{"type":"function","name":"groups","inputs":[{"name":"","type":"uint256","internalType":"uint256"}],"outputs":[{"name":"id","type":"uint256","internalType":"uint256"},{"name":"name","type":"string","internalType":"string"},{"name":"description","type":"string","internalType":"string"},{"name":"isPrivate","type":"bool","internalType":"bool"},{"name":"creator","type":"address","internalType":"address"},{"name":"targetAmount","type":"uint256","internalType":"uint256"},{"name":"currentAmount","type":"uint256","internalType":"uint256"},{"name":"memberLimit","type":"uint256","internalType":"uint256"},{"name":"createdAt","type":"uint256","internalType":"uint256"},{"name":"endDate","type":"uint256","internalType":"uint256"},{"name":"isActive","type":"bool","internalType":"bool"},{"name":"isCompleted","type":"bool","internalType":"bool"}],"stateMutability":"view"},{"type":"function","name":"isUserVerified","inputs":[{"name":"user","type":"address","internalType":"address"}],"outputs":[{"name":"","type":"bool","internalType":"bool"}],"stateMutability":"view"},{"type":"function","name":"joinGroup","inputs":[{"name":"groupId","type":"uint256","internalType":"uint256"}],"outputs":[],"stateMutability":"nonpayable"},{"type":"function","name":"nextGroupId","inputs":[],"outputs":[{"name":"","type":"uint256","internalType":"uint256"}],"stateMutability":"view"},{"type":"function","name":"userGroups","inputs":[{"name":"","type":"address","internalType":"address"},{"name":"","type":"uint256","internalType":"uint256"}],"outputs":[{"name":"","type":"uint256","internalType":"uint256"}],"stateMutability":"view"},{"type":"function","name":"verifiedUsers","inputs":[{"name":"","type":"address","internalType":"address"}],"outputs":[{"name":"","type":"bool","internalType":"bool"}],"stateMutability":"view"},{"type":"function","name":"verifyUser","inputs":[{"name":"user","type":"address","internalType":"address"}],"outputs":[],"stateMutability":"nonpayable"},{"type":"function","name":"withdrawFromGroup","inputs":[{"name":"groupId","type":"uint256","internalType":"uint256"}],"outputs":[],"stateMutability":"nonpayable"},{"type":"event","name":"ContributionMade","inputs":[{"name":"groupId","type":"uint256","indexed":true,"internalType":"uint256"},{"name":"member","type":"address","indexed":true,"internalType":"address"},{"name":"amount","type":"uint256","indexed":false,"internalType":"uint256"}],"anonymous":false},{"type":"event","name":"GroupCompleted","inputs":[{"name":"groupId","type":"uint256","indexed":true,"internalType":"uint256"},{"name":"totalAmount","type":"uint256","indexed":false,"internalType":"uint256"}],"anonymous":false},{"type":"event","name":"GroupCreated","inputs":[{"name":"groupId","type":"uint256","indexed":true,"internalType":"uint256"},{"name":"creator","type":"address","indexed":true,"internalType":"address"},{"name":"name","type":"string","indexed":false,"internalType":"string"},{"name":"targetAmount","type":"uint256","indexed":false,"internalType":"uint256"},{"name":"isPrivate","type":"bool","indexed":false,"internalType":"bool"}],"anonymous":false},{"type":"event","name":"MemberJoined","inputs":[{"name":"groupId","type":"uint256","indexed":true,"internalType":"uint256"},{"name":"member","type":"address","indexed":true,"internalType":"address"}],"anonymous":false},{"type":"event","name":"UserVerified","inputs":[{"name":"user","type":"address","indexed":true,"internalType":"address"},{"name":"timestamp","type":"uint256","indexed":false,"internalType":"uint256"}],"anonymous":false}],"bytecode":{"object":"0x60808060405234601557611a2b908161001a8239f35b5f80fdfe60806040526004361015610011575f80fd5b5f3560e01c806336cc8130146115435780633da04e4a1461148f5780634d8131201461142a5780635226dd97146113d25780635eda7a7614610c9f57806360a9e0971461137a57806373aba54f14610d375780637c3381dd14610cbb57806393b1415b14610c9f57806396324bd414610bb95780639cf9338c14610a8f578063a2a4498b1461091e578063ace417e0146102fd578063bd3d657314610826578063c1cbbca71461056d578063ceb6065414610382578063e2417e121461033a578063e35fe366146102fd5763eed02e4b146100ea575f80fd5b346102f95760203660031901126102f957600435335f52600660205261011660ff60405f2054166118b3565b5f8181526001602052604090206003015461013e9060081c6001600160a01b03161515611870565b805f52600160205261015960ff600960405f200154166119b6565b5f818152600160209081526040808320600283528184203385529092529091206003015460ff166102c157815f526003602052600660405f2054910154111561028c576040516101a8816116c4565b3381526004602082015f8152610236604084015f81526060850190600182526080860193428552875f52600260205260405f2060018060a01b0333165f5260205260405f209660018060a01b039060018060a01b03905116166001600160601b0360a01b885416178755516001870155516002860155511515600385019060ff801983541691151516179055565b51910155805f52600360205261024f3360405f20611900565b335f5260056020526102648160405f20611941565b33907f78da64a590c3052953ad9e0a5546bbf12bb68ae7634e3fb2a774e22a8c6557c15f80a3005b60405162461bcd60e51b815260206004820152600d60248201526c11dc9bdd5c081a5cc8199d5b1b609a1b6044820152606490fd5b60405162461bcd60e51b815260206004820152601060248201526f20b63932b0b23c90309036b2b6b132b960811b6044820152606490fd5b5f80fd5b346102f95760203660031901126102f9576001600160a01b0361031e611623565b165f526006602052602060ff60405f2054166040519015158152f35b346102f9576103483661164f565b905f52600360205260405f2080548210156102f95760209161036991611692565b905460405160039290921b1c6001600160a01b03168152f35b346102f95760203660031901126102f9576004355f6101606040516103a6816116a7565b82815260606020820152606060408201528260608201528260808201528260a08201528260c08201528260e08201528261010082015282610120820152826101408201520152805f52600160205261041160018060a01b03600360405f20015460081c161515611870565b5f5260016020526101a060405f206040519061042c826116a7565b8054825261043c600182016117ac565b9160208101928352610450600283016117ac565b9060408101918252600383015492606082019360ff811615158552608083019060018060a01b039060081c168152600482015460a08401908152600583015460c0850190815260068401549160e08601928352600785015493610100870194855261051e60096008880154976101208a0198895201549861050b6101408a019960ff8c1615158b5260ff61016082019c60081c1615158c526040519e8f9e8f926020845251602084015251916101806040820152019061184c565b90518c8203601f190160608e015261184c565b9851151560808b0152516001600160a01b031660a08a01525160c08901525160e08801525161010087015251610120860152516101408501525115156101608401525115156101808301520390f35b60203660031901126102f9576004355f8181526002602090815260408083203384529091529020600301546105a49060ff16611975565b805f5260016020526105bf60ff600960405f200154166119b6565b34156107e157805f52600160205260405f20600881015442116107aa576009810160ff815460081c1661077057825f52600260205260405f2060018060a01b0333165f52602052600160405f20016106183482546118f3565b9055825f52600260205260405f2060018060a01b0333165f5260205260405f206002429101556005820161064d3482546118f3565b8155835f52600460205260405f209060405191610669836116e0565b338352602083019234845260408101914283528054600160401b81101561075c5761069991600182018155611665565b9290926107495760049460029260018060a01b039060018060a01b03905116166001600160601b0360a01b85541617845551600184015551910155604051348152857f0a4a91237423e0a1766a761c7cb029311d8b95d6b1b81db1b949a70c98b4e08e60203393a35492015482101561070e57005b805461ffff19166101001790556040519081527f6d68ab904b0772380ada6eeda83e5370494b359983026ffb8fcabc07605f6a4790602090a2005b634e487b7160e01b5f525f60045260245ffd5b634e487b7160e01b5f52604160045260245ffd5b60405162461bcd60e51b815260206004820152601260248201527111dc9bdd5c081a5cc818dbdb5c1b195d195960721b6044820152606490fd5b60405162461bcd60e51b815260206004820152600f60248201526e11dc9bdd5c081a185cc8195b991959608a1b6044820152606490fd5b60405162461bcd60e51b815260206004820152601d60248201527f436f6e747269627574696f6e206d75737420626520706f7369746976650000006044820152606490fd5b346102f95760403660031901126102f957600435610842611639565b905f6080604051610852816116c4565b8281528260208201528260408201528260608201520152805f52600160205261088e60018060a01b03600360405f20015460081c161515611870565b5f52600260205260405f209060018060a01b03165f5260205260a060405f206040516108b9816116c4565b600180841b0382541691828252600181015460208301908152600282015490604084019182526080600460ff60038601541694606087019515158652015494019384526040519485525160208501525160408401525115156060830152516080820152f35b346102f95760203660031901126102f9576004355f81815260026020908152604080832033845290915290206003015461095a9060ff16611975565b805f52600160205260405f209060ff600983015460081c1615610a54575f90815260026020908152604080832033845290915290206001018054918215610a0f576005810154808402938404036109fb57600401549182156109e7575f808093818681950491558181156109de575b3390f1156109d357005b6040513d5f823e3d90fd5b506108fc6109c9565b634e487b7160e01b5f52601260045260245ffd5b634e487b7160e01b5f52601160045260245ffd5b60405162461bcd60e51b815260206004820152601b60248201527f4e6f20636f6e747269627574696f6e20746f20776974686472617700000000006044820152606490fd5b60405162461bcd60e51b815260206004820152601360248201527211dc9bdd5c081b9bdd0818dbdb5c1b195d1959606a1b6044820152606490fd5b346102f95760203660031901126102f9576004355f81815260016020526040902060030154610acb9060081c6001600160a01b03161515611870565b5f52600460205260405f2080549067ffffffffffffffff821161075c5760405191610afc60208260051b01846116fc565b8083526020830180925f5260205f205f915b838310610b7b578486604051918291602083019060208452518091526040830191905f5b818110610b40575050500390f35b825180516001600160a01b03168552602081810151818701526040918201519186019190915286955060609094019390920191600101610b32565b60036020600192604051610b8e816116e0565b848060a01b038654168152848601548382015260028601546040820152815201920192019190610b0e565b346102f95760203660031901126102f9576004355f526001602052602060405f2080549060ff610beb600183016117ac565b610bf7600284016117ac565b9260038101549360048201546005830154600684015491610c4d600786015494610c3f60096008890154980154986101806040519e8f9e8f90815201526101808d019061184c565b908b820360408d015261184c565b97878116151560608b015260018060a01b039060081c1660808a015260a089015260c088015260e0870152610100860152610120850152818116151561014085015260081c1615156101608301520390f35b346102f9575f3660031901126102f95760205f54604051908152f35b346102f95760403660031901126102f957610cd4611639565b6004355f52600260205260405f209060018060a01b03165f5260205260a060405f20600180831b03815416906001810154906002810154600460ff6003840154169201549260405194855260208501526040840152151560608301526080820152f35b346102f95760c03660031901126102f95760043567ffffffffffffffff81116102f957610d6890369060040161171e565b60243567ffffffffffffffff81116102f957610d8890369060040161171e565b60443580151581036102f95760843560a43592335f526006602052610db360ff60405f2054166118b3565b606435156113355781156112f05783156112ab575f54935f1985146109fb57600185015f5562015180810290810462015180036109fb57610df490426118f3565b9060405191610e02836116a7565b858352602083019387855260408401928352851515606085015233608085015260643560a08501525f60c085015260e08401524261010084015261012083015260016101408301525f610160830152845f52600160205260405f20928251845560018401905180519067ffffffffffffffff821161075c578190610e868454611774565b601f811161125b575b50602090601f83116001146111f8575f926111ed575b50508160011b915f199060031b1c19161790555b519182519267ffffffffffffffff841161075c57610eda6002830154611774565b601f81116111a5575b50916020969186938890601f871160011461110f5791867fa80403e41e02003a11453420290728f14f1a142f0bbe15e159837a144a0e6c3e9697600993610160955f92611104575b50508160011b915f199060031b1c19161760028201555b60038101610f6260608601511515829060ff801983541691151516179055565b60808501518154610100600160a81b031916600891821b610100600160a81b03161790915560a0850151600483015560c0850151600583015560e08501516006830155610100850151600783015561012085015182820155610140850151929091018054939094015161ff0090151590911b1661ffff1990921660ff9115159190911617179055604051610ff5816116c4565b33815260048782015f8152611080604084015f81526060850190600182526080860193428552895f5260028d5260405f2060018060a01b0333165f528d5260405f209660018060a01b039060018060a01b03905116166001600160601b0360a01b885416178755516001870155516002860155511515600385019060ff801983541691151516179055565b51910155825f52600386526110983360405f20611900565b335f52600586526110ac8360405f20611941565b6110c16040519160608352606083019061184c565b9360643587830152151560408201528033940390a36040519033817f78da64a590c3052953ad9e0a5546bbf12bb68ae7634e3fb2a774e22a8c6557c15f80a38152f35b015190508c80610f2b565b9590600283015f52805f20965f5b601f198416811061118b5750827fa80403e41e02003a11453420290728f14f1a142f0bbe15e159837a144a0e6c3e97986101609593600193600996601f19811610611173575b505050811b016002820155610f42565b01515f1960f88460031b161c191690558c8080611163565b8282015189556001909801978a9750918b01918b0161111d565b600283015f5260205f20601f860160051c810191602087106111e3575b601f0160051c01905b8181106111d85750610ee3565b5f81556001016111cb565b90915081906111c2565b015190508980610ea5565b5f8581528281209350601f198516905b818110611243575090846001959493921061122b575b505050811b019055610eb9565b01515f1960f88460031b161c1916905589808061121e565b92936020600181928786015181550195019301611208565b909150835f5260205f20601f840160051c810191602085106112a1575b90601f859493920160051c01905b8181106112935750610e8f565b5f8155849350600101611286565b9091508190611278565b60405162461bcd60e51b815260206004820152601960248201527f4475726174696f6e206d75737420626520706f736974697665000000000000006044820152606490fd5b60405162461bcd60e51b815260206004820152601d60248201527f4d656d626572206c696d6974206d75737420626520706f7369746976650000006044820152606490fd5b60405162461bcd60e51b815260206004820152601e60248201527f54617267657420616d6f756e74206d75737420626520706f73697469766500006044820152606490fd5b346102f95760403660031901126102f957611393611623565b6001600160a01b03165f908152600560205260409020805460243591908210156102f9576020916113c391611692565b90549060031b1c604051908152f35b346102f9576113e03661164f565b905f52600460205260405f2080548210156102f95760609161140191611665565b5060018060a01b0381541690600260018201549101549060405192835260208301526040820152f35b346102f95760203660031901126102f9576001600160a01b0361144b611623565b16805f52600660205260405f20600160ff198254161790557f22b3126528cda4618d13b6945f5e96fe53a5125f386aa591ee89134e2681c6216020604051428152a2005b346102f95760203660031901126102f9576001600160a01b036114b0611623565b165f52600560205260405f20604051806020835491828152019081935f5260205f20905f5b81811061152d57505050816114eb9103826116fc565b604051918291602083019060208452518091526040830191905f5b818110611514575050500390f35b8251845285945060209384019390920191600101611506565b82548452602090930192600192830192016114d5565b346102f95760203660031901126102f9576004355f8181526001602052604090206003015461157f9060081c6001600160a01b03161515611870565b5f52600360205260405f20604051806020835491828152019081935f5260205f20905f5b81811061160457505050816115b99103826116fc565b604051918291602083019060208452518091526040830191905f5b8181106115e2575050500390f35b82516001600160a01b03168452859450602093840193909201916001016115d4565b82546001600160a01b03168452602090930192600192830192016115a3565b600435906001600160a01b03821682036102f957565b602435906001600160a01b03821682036102f957565b60409060031901126102f9576004359060243590565b805482101561167e575f52600360205f20910201905f90565b634e487b7160e01b5f52603260045260245ffd5b805482101561167e575f5260205f2001905f90565b610180810190811067ffffffffffffffff82111761075c57604052565b60a0810190811067ffffffffffffffff82111761075c57604052565b6060810190811067ffffffffffffffff82111761075c57604052565b90601f8019910116810190811067ffffffffffffffff82111761075c57604052565b81601f820112156102f95780359067ffffffffffffffff821161075c5760405192611753601f8401601f1916602001856116fc565b828452602083830101116102f957815f926020809301838601378301015290565b90600182811c921680156117a2575b602083101461178e57565b634e487b7160e01b5f52602260045260245ffd5b91607f1691611783565b9060405191825f8254926117bf84611774565b808452936001811690811561182a57506001146117e6575b506117e4925003836116fc565b565b90505f9291925260205f20905f915b81831061180e5750509060206117e4928201015f6117d7565b60209193508060019154838589010152019101909184926117f5565b9050602092506117e494915060ff191682840152151560051b8201015f6117d7565b805180835260209291819084018484015e5f828201840152601f01601f1916010190565b1561187757565b60405162461bcd60e51b815260206004820152601460248201527311dc9bdd5c08191bd95cc81b9bdd08195e1a5cdd60621b6044820152606490fd5b156118ba57565b60405162461bcd60e51b8152602060048201526011602482015270155cd95c881b9bdd081d995c9a599a5959607a1b6044820152606490fd5b919082018092116109fb57565b8054600160401b81101561075c5761191d91600182018155611692565b81546001600160a01b0393841660039290921b91821b9390911b1916919091179055565b8054600160401b81101561075c5761195e91600182018155611692565b819291549060031b91821b915f19901b1916179055565b1561197c57565b60405162461bcd60e51b81526020600482015260126024820152712737ba10309033b937bab81036b2b6b132b960711b6044820152606490fd5b156119bd57565b60405162461bcd60e51b815260206004820152601060248201526f47726f7570206e6f742061637469766560801b6044820152606490fdfea26469706673582212207c5a7e7ff1f15d7aedf70cb891715b04e55cd1a1e3641626daa9f4deba56c5b864736f6c634300081c0033","linkReferences":{}},"methodIdentifiers":{"contribute(uint256)":"c1cbbca7","createGroup(string,string,bool,uint256,uint256,uint256)":"73aba54f","getGroup(uint256)":"ceb60654","getGroupContributions(uint256)":"9cf9338c","getGroupMember(uint256,address)":"bd3d6573","getGroupMembers(uint256)":"36cc8130","getTotalGroups()":"93b1415b","getUserGroups(address)":"3da04e4a","groupContributions(uint256,uint256)":"5226dd97","groupMemberList(uint256,uint256)":"e2417e12","groupMembers(uint256,address)":"7c3381dd","groups(uint256)":"96324bd4","isUserVerified(address)":"ace417e0","joinGroup(uint256)":"eed02e4b","nextGroupId()":"5eda7a76","userGroups(address,uint256)":"60a9e097","verifiedUsers(address)":"e35fe366","verifyUser(address)":"4d813120","withdrawFromGroup(uint256)":"a2a4498b"},"id":19}