{"abi":[{"type":"constructor","inputs":[],"stateMutability":"nonpayable"},{"type":"function","name":"allowance","inputs":[{"name":"","type":"address","internalType":"address"},{"name":"","type":"address","internalType":"address"}],"outputs":[{"name":"","type":"uint256","internalType":"uint256"}],"stateMutability":"view"},{"type":"function","name":"approve","inputs":[{"name":"_spender","type":"address","internalType":"address"},{"name":"_value","type":"uint256","internalType":"uint256"}],"outputs":[{"name":"","type":"bool","internalType":"bool"}],"stateMutability":"nonpayable"},{"type":"function","name":"balanceOf","inputs":[{"name":"","type":"address","internalType":"address"}],"outputs":[{"name":"","type":"uint256","internalType":"uint256"}],"stateMutability":"view"},{"type":"function","name":"burn","inputs":[{"name":"_amount","type":"uint256","internalType":"uint256"}],"outputs":[],"stateMutability":"nonpayable"},{"type":"function","name":"decimals","inputs":[],"outputs":[{"name":"","type":"uint8","internalType":"uint8"}],"stateMutability":"view"},{"type":"function","name":"mint","inputs":[{"name":"_to","type":"address","internalType":"address"},{"name":"_amount","type":"uint256","internalType":"uint256"}],"outputs":[],"stateMutability":"nonpayable"},{"type":"function","name":"name","inputs":[],"outputs":[{"name":"","type":"string","internalType":"string"}],"stateMutability":"view"},{"type":"function","name":"owner","inputs":[],"outputs":[{"name":"","type":"address","internalType":"address"}],"stateMutability":"view"},{"type":"function","name":"symbol","inputs":[],"outputs":[{"name":"","type":"string","internalType":"string"}],"stateMutability":"view"},{"type":"function","name":"totalSupply","inputs":[],"outputs":[{"name":"","type":"uint256","internalType":"uint256"}],"stateMutability":"view"},{"type":"function","name":"transfer","inputs":[{"name":"_to","type":"address","internalType":"address"},{"name":"_value","type":"uint256","internalType":"uint256"}],"outputs":[{"name":"","type":"bool","internalType":"bool"}],"stateMutability":"nonpayable"},{"type":"function","name":"transferFrom","inputs":[{"name":"_from","type":"address","internalType":"address"},{"name":"_to","type":"address","internalType":"address"},{"name":"_value","type":"uint256","internalType":"uint256"}],"outputs":[{"name":"","type":"bool","internalType":"bool"}],"stateMutability":"nonpayable"},{"type":"function","name":"transferOwnership","inputs":[{"name":"_newOwner","type":"address","internalType":"address"}],"outputs":[],"stateMutability":"nonpayable"},{"type":"event","name":"Approval","inputs":[{"name":"owner","type":"address","indexed":true,"internalType":"address"},{"name":"spender","type":"address","indexed":true,"internalType":"address"},{"name":"value","type":"uint256","indexed":false,"internalType":"uint256"}],"anonymous":false},{"type":"event","name":"OwnershipTransferred","inputs":[{"name":"previousOwner","type":"address","indexed":true,"internalType":"address"},{"name":"newOwner","type":"address","indexed":true,"internalType":"address"}],"anonymous":false},{"type":"event","name":"Transfer","inputs":[{"name":"from","type":"address","indexed":true,"internalType":"address"},{"name":"to","type":"address","indexed":true,"internalType":"address"},{"name":"value","type":"uint256","indexed":false,"internalType":"uint256"}],"anonymous":false}],"bytecode":{"object":"0x60806040523461017a576100135f5461017e565b601f8111610133575b507f547361726f546f6b656e000000000000000000000000000000000000000000145f5560015461004c9061017e565b601f81116100eb575b600a64545341524f60d81b01600155601260ff1960025416176002553360018060a01b031960045416176004556b033b2e3c9fd0803ce8000000600355335f5260056020526b033b2e3c9fd0803ce800000060405f20556003546040519081525f7fddf252ad1be2c89b69c2b068fc378daa952ba7f163c4a11628f55a4df523b3ef60203393a36040516109c290816101b78239f35b60015f52601f0160051c7fb10e2d527612073b26eecdfd717e6a320cf44b4afac2b0732d9fcbe2b7fa0cf6908101905b8181106101285750610055565b5f815560010161011b565b5f8052601f0160051c7f290decd9548b62a8d60345a988386fc84ba6bc95484008f6362f93160ef3e563908101905b81811061016f575061001c565b5f8155600101610162565b5f80fd5b90600182811c921680156101ac575b602083101461019857565b634e487b7160e01b5f52602260045260245ffd5b91607f169161018d56fe60806040526004361015610011575f80fd5b5f3560e01c806306fdde03146106ff578063095ea7b31461068657806318160ddd1461066957806323b872dd1461053b578063313ce5671461051b57806340c10f191461045057806342966c68146103d557806370a082311461039d5780638da5cb5b1461037557806395d89b4114610257578063a9059cbb146101b9578063dd62ed3e146101695763f2fde38b146100a8575f80fd5b34610165576020366003190112610165576100c16107fb565b600454906001600160a01b038216906100db3383146108e4565b6001600160a01b0316918215610120576001600160a01b03191682176004557f8be0079c531659141344cd1fd0a4f28419497f9722a3daafe3b4186f6b6457e05f80a3005b60405162461bcd60e51b815260206004820152601960248201527f4e6577206f776e6572206973207a65726f2061646472657373000000000000006044820152606490fd5b5f80fd5b34610165576040366003190112610165576101826107fb565b61018a610811565b6001600160a01b039182165f908152600660209081526040808320949093168252928352819020549051908152f35b34610165576040366003190112610165576101d26107fb565b6001600160a01b03166024356101e9821515610827565b335f5260056020526102018160405f20541015610873565b335f52600560205260405f206102188282546108b6565b9055815f52600560205260405f206102318282546108d7565b90556040519081525f51602061096d5f395f51905f5260203392a3602060405160018152f35b34610165575f366003190112610165576040515f6001548060011c9060018116801561036b575b6020831081146103575782855290811561033b57506001146102e5575b50819003601f01601f191681019067ffffffffffffffff8211818310176102d157604082905281906102cd90826107d1565b0390f35b634e487b7160e01b5f52604160045260245ffd5b60015f9081529091507fb10e2d527612073b26eecdfd717e6a320cf44b4afac2b0732d9fcbe2b7fa0cf65b8282106103255750602091508201018261029b565b6001816020925483858801015201910190610310565b90506020925060ff191682840152151560051b8201018261029b565b634e487b7160e01b5f52602260045260245ffd5b91607f169161027e565b34610165575f366003190112610165576004546040516001600160a01b039091168152602090f35b34610165576020366003190112610165576001600160a01b036103be6107fb565b165f526005602052602060405f2054604051908152f35b34610165576020366003190112610165575f60043533825260056020526104028160408420541015610873565b61040d811515610920565b3382526005602052604082206104248282546108b6565b9055610432816003546108b6565b6003556040519081525f51602061096d5f395f51905f5260203392a3005b34610165576040366003190112610165576104696107fb565b6024359061048260018060a01b036004541633146108e4565b6001600160a01b03169081156104df575f51602061096d5f395f51905f526020826104af5f941515610920565b6104bb816003546108d7565b60035584845260058252604084206104d48282546108d7565b9055604051908152a3005b60405162461bcd60e51b81526020600482015260146024820152734d696e7420746f207a65726f206164647265737360601b6044820152606490fd5b34610165575f36600319011261016557602060ff60025416604051908152f35b34610165576060366003190112610165576105546107fb565b61055c610811565b6001600160a01b03169060443590610575831515610827565b60018060a01b031690815f5260056020526105968160405f20541015610873565b5f828152600660209081526040808320338452909152902054811161062b5760205f51602061096d5f395f51905f5291835f526005825260405f206105dc8282546108b6565b9055845f526005825260405f206105f48282546108d7565b90555f8481526006835260408082203383528452902080546106179083906108b6565b9055604051908152a3602060405160018152f35b60405162461bcd60e51b8152602060048201526016602482015275496e73756666696369656e7420616c6c6f77616e636560501b6044820152606490fd5b34610165575f366003190112610165576020600354604051908152f35b346101655760403660031901126101655761069f6107fb565b335f8181526006602090815260408083206001600160a01b03909516808452948252918290206024359081905591519182527f8c5be1e5ebec7d5bd14f71427d1e84f3dd0314c0f7b2291e5b200ac8c7c3b92591a3602060405160018152f35b34610165575f366003190112610165576040515f5f548060011c906001811680156107c7575b6020831081146103575782855290811561033b57506001146107735750819003601f01601f191681019067ffffffffffffffff8211818310176102d157604082905281906102cd90826107d1565b5f8080529091507f290decd9548b62a8d60345a988386fc84ba6bc95484008f6362f93160ef3e5635b8282106107b15750602091508201018261029b565b600181602092548385880101520191019061079c565b91607f1691610725565b602060409281835280519182918282860152018484015e5f828201840152601f01601f1916010190565b600435906001600160a01b038216820361016557565b602435906001600160a01b038216820361016557565b1561082e57565b60405162461bcd60e51b815260206004820152601860248201527f5472616e7366657220746f207a65726f206164647265737300000000000000006044820152606490fd5b1561087a57565b60405162461bcd60e51b8152602060048201526014602482015273496e73756666696369656e742062616c616e636560601b6044820152606490fd5b919082039182116108c357565b634e487b7160e01b5f52601160045260245ffd5b919082018092116108c357565b156108eb57565b60405162461bcd60e51b815260206004820152600d60248201526c2737ba103a34329037bbb732b960991b6044820152606490fd5b1561092757565b60405162461bcd60e51b815260206004820152601d60248201527f416d6f756e74206d7573742062652067726561746572207468616e20300000006044820152606490fdfeddf252ad1be2c89b69c2b068fc378daa952ba7f163c4a11628f55a4df523b3efa26469706673582212203256b1d1902d6bcd7566ef7183095847d3359de5387f4150f98589c969215fca64736f6c634300081c0033","linkReferences":{}},"methodIdentifiers":{"allowance(address,address)":"dd62ed3e","approve(address,uint256)":"095ea7b3","balanceOf(address)":"70a08231","burn(uint256)":"42966c68","decimals()":"313ce567","mint(address,uint256)":"40c10f19","name()":"06fdde03","owner()":"8da5cb5b","symbol()":"95d89b41","totalSupply()":"18160ddd","transfer(address,uint256)":"a9059cbb","transferFrom(address,address,uint256)":"23b872dd","transferOwnership(address)":"f2fde38b"},"id":22}